{
  "_format": "hh-sol-artifact-1",
  "contractName": "DigitalIdentity",
  "sourceName": "contracts/DigitalIdentity.sol",
  "abi": [
    {
      "inputs": [],
      "name": "ECDSAInvalidSignature",
      "type": "error"
    },
    {
      "inputs": [
        {
          "internalType": "uint256",
          "name": "length",
          "type": "uint256"
        }
      ],
      "name": "ECDSAInvalidSignatureLength",
      "type": "error"
    },
    {
      "inputs": [
        {
          "internalType": "bytes32",
          "name": "s",
          "type": "bytes32"
        }
      ],
      "name": "ECDSAInvalidSignatureS",
      "type": "error"
    },
    {
      "anonymous": false,
      "inputs": [
        {
          "indexed": true,
          "internalType": "address",
          "name": "user",
          "type": "address"
        },
        {
          "indexed": false,
          "internalType": "bytes32",
          "name": "credentialHash",
          "type": "bytes32"
        },
        {
          "indexed": false,
          "internalType": "string",
          "name": "credentialType",
          "type": "string"
        },
        {
          "indexed": false,
          "internalType": "uint256",
          "name": "expirationDate",
          "type": "uint256"
        }
      ],
      "name": "CredentialIssued",
      "type": "event"
    },
    {
      "anonymous": false,
      "inputs": [
        {
          "indexed": true,
          "internalType": "address",
          "name": "user",
          "type": "address"
        },
        {
          "indexed": false,
          "internalType": "bytes32",
          "name": "credentialHash",
          "type": "bytes32"
        }
      ],
      "name": "CredentialRevoked",
      "type": "event"
    },
    {
      "anonymous": false,
      "inputs": [
        {
          "indexed": true,
          "internalType": "string",
          "name": "did",
          "type": "string"
        },
        {
          "indexed": false,
          "internalType": "address",
          "name": "publicKey",
          "type": "address"
        }
      ],
      "name": "DIDRegistered",
      "type": "event"
    },
    {
      "inputs": [
        {
          "internalType": "bytes32",
          "name": "",
          "type": "bytes32"
        }
      ],
      "name": "credentialIssuers",
      "outputs": [
        {
          "internalType": "address",
          "name": "",
          "type": "address"
        }
      ],
      "stateMutability": "view",
      "type": "function"
    },
    {
      "inputs": [
        {
          "internalType": "string",
          "name": "",
          "type": "string"
        }
      ],
      "name": "didNonces",
      "outputs": [
        {
          "internalType": "uint256",
          "name": "",
          "type": "uint256"
        }
      ],
      "stateMutability": "view",
      "type": "function"
    },
    {
      "inputs": [
        {
          "internalType": "string",
          "name": "",
          "type": "string"
        }
      ],
      "name": "didToPublicKey",
      "outputs": [
        {
          "internalType": "address",
          "name": "",
          "type": "address"
        }
      ],
      "stateMutability": "view",
      "type": "function"
    },
    {
      "inputs": [
        {
          "internalType": "address",
          "name": "user",
          "type": "address"
        },
        {
          "internalType": "string",
          "name": "credentialType",
          "type": "string"
        },
        {
          "internalType": "uint256",
          "name": "issuanceDate",
          "type": "uint256"
        },
        {
          "internalType": "uint256",
          "name": "expirationDate",
          "type": "uint256"
        },
        {
          "internalType": "bytes32",
          "name": "credentialHash",
          "type": "bytes32"
        },
        {
          "internalType": "bytes",
          "name": "signature",
          "type": "bytes"
        },
        {
          "internalType": "string",
          "name": "issuerDID",
          "type": "string"
        }
      ],
      "name": "issueCredential",
      "outputs": [],
      "stateMutability": "nonpayable",
      "type": "function"
    },
    {
      "inputs": [
        {
          "internalType": "bytes32",
          "name": "",
          "type": "bytes32"
        }
      ],
      "name": "issuedCredentials",
      "outputs": [
        {
          "internalType": "bool",
          "name": "",
          "type": "bool"
        }
      ],
      "stateMutability": "view",
      "type": "function"
    },
    {
      "inputs": [
        {
          "internalType": "string",
          "name": "did",
          "type": "string"
        },
        {
          "internalType": "address",
          "name": "publicKey",
          "type": "address"
        }
      ],
      "name": "registerDID",
      "outputs": [],
      "stateMutability": "nonpayable",
      "type": "function"
    },
    {
      "inputs": [
        {
          "internalType": "address",
          "name": "user",
          "type": "address"
        },
        {
          "internalType": "bytes32",
          "name": "credentialHash",
          "type": "bytes32"
        }
      ],
      "name": "revokeCredential",
      "outputs": [],
      "stateMutability": "nonpayable",
      "type": "function"
    },
    {
      "inputs": [
        {
          "internalType": "address",
          "name": "",
          "type": "address"
        },
        {
          "internalType": "bytes32",
          "name": "",
          "type": "bytes32"
        }
      ],
      "name": "userCredentials",
      "outputs": [
        {
          "internalType": "bytes32",
          "name": "hashedCredential",
          "type": "bytes32"
        },
        {
          "internalType": "string",
          "name": "credentialType",
          "type": "string"
        },
        {
          "internalType": "uint256",
          "name": "issuanceDate",
          "type": "uint256"
        },
        {
          "internalType": "uint256",
          "name": "expirationDate",
          "type": "uint256"
        },
        {
          "internalType": "bool",
          "name": "isActive",
          "type": "bool"
        }
      ],
      "stateMutability": "view",
      "type": "function"
    },
    {
      "inputs": [
        {
          "internalType": "address",
          "name": "user",
          "type": "address"
        },
        {
          "internalType": "bytes32",
          "name": "credentialHash",
          "type": "bytes32"
        }
      ],
      "name": "verifyCredential",
      "outputs": [
        {
          "internalType": "bool",
          "name": "",
          "type": "bool"
        }
      ],
      "stateMutability": "view",
      "type": "function"
    }
  ],
  "bytecode": "0x608060405234801561001057600080fd5b50611d45806100206000396000f3fe608060405234801561001057600080fd5b50600436106100935760003560e01c80635f889e17116100665780635f889e17146101585780636662666a1461018857806399ec075b146101a4578063dff96041146101d8578063e5dca78e146101f457610093565b80630410a9c9146100985780631c8294d6146100c85780633549e881146100f857806350333c6d14610128575b600080fd5b6100b260048036038101906100ad9190611026565b610210565b6040516100bf9190611088565b60405180910390f35b6100e260048036038101906100dd91906110d9565b61023e565b6040516100ef9190611147565b60405180910390f35b610112600480360381019061010d9190611026565b610271565b60405161011f9190611147565b60405180910390f35b610142600480360381019061013d91906110d9565b6102ba565b60405161014f919061117d565b60405180910390f35b610172600480360381019061016d91906111c4565b6102da565b60405161017f919061117d565b60405180910390f35b6101a2600480360381019061019d9190611204565b610434565b005b6101be60048036038101906101b991906111c4565b61058f565b6040516101cf9594939291906112ee565b60405180910390f35b6101f260048036038101906101ed9190611415565b610667565b005b61020e600480360381019061020991906111c4565b6109c0565b005b6003818051602081018201805184825260208301602085012081835280955050505050506000915090505481565b60046020528060005260406000206000915054906101000a900473ffffffffffffffffffffffffffffffffffffffff1681565b6002818051602081018201805184825260208301602085012081835280955050505050506000915054906101000a900473ffffffffffffffffffffffffffffffffffffffff1681565b60016020528060005260406000206000915054906101000a900460ff1681565b6000806000808573ffffffffffffffffffffffffffffffffffffffff1673ffffffffffffffffffffffffffffffffffffffff16815260200190815260200160002060008481526020019081526020016000206040518060a0016040529081600082015481526020016001820180546103519061153a565b80601f016020809104026020016040519081016040528092919081815260200182805461037d9061153a565b80156103ca5780601f1061039f576101008083540402835291602001916103ca565b820191906000526020600020905b8154815290600101906020018083116103ad57829003601f168201915b5050505050815260200160028201548152602001600382015481526020016004820160009054906101000a900460ff161515151581525050905080608001518015610419575080606001514211155b1561042857600191505061042e565b60009150505b92915050565b600073ffffffffffffffffffffffffffffffffffffffff1660028360405161045c91906115a7565b908152602001604051809103902060009054906101000a900473ffffffffffffffffffffffffffffffffffffffff1673ffffffffffffffffffffffffffffffffffffffff16146104e1576040517f08c379a00000000000000000000000000000000000000000000000000000000081526004016104d89061160a565b60405180910390fd5b806002836040516104f291906115a7565b908152602001604051809103902060006101000a81548173ffffffffffffffffffffffffffffffffffffffff021916908373ffffffffffffffffffffffffffffffffffffffff1602179055508160405161054c91906115a7565b60405180910390207fd59e4d670f6e249831d6f8ce560f47ced54b3f4203e2d0050dc495fd6b919dd2826040516105839190611147565b60405180910390a25050565b6000602052816000526040600020602052806000526040600020600091509150508060000154908060010180546105c59061153a565b80601f01602080910402602001604051908101604052809291908181526020018280546105f19061153a565b801561063e5780601f106106135761010080835404028352916020019161063e565b820191906000526020600020905b81548152906001019060200180831161062157829003601f168201915b5050505050908060020154908060030154908060040160009054906101000a900460ff16905085565b600060028260405161067991906115a7565b908152602001604051809103902060009054906101000a900473ffffffffffffffffffffffffffffffffffffffff169050600073ffffffffffffffffffffffffffffffffffffffff168173ffffffffffffffffffffffffffffffffffffffff1603610719576040517f08c379a000000000000000000000000000000000000000000000000000000000815260040161071090611676565b60405180910390fd5b6107438460038460405161072d91906115a7565b9081526020016040518091039020548584610b7b565b610782576040517f08c379a0000000000000000000000000000000000000000000000000000000008152600401610779906116e2565b60405180910390fd5b6001600085815260200190815260200160002060009054906101000a900460ff16156107e3576040517f08c379a00000000000000000000000000000000000000000000000000000000081526004016107da9061174e565b60405180910390fd5b600180600086815260200190815260200160002060006101000a81548160ff0219169083151502179055506040518060a00160405280858152602001888152602001878152602001868152602001600115158152506000808a73ffffffffffffffffffffffffffffffffffffffff1673ffffffffffffffffffffffffffffffffffffffff16815260200190815260200160002060008681526020019081526020016000206000820151816000015560208201518160010190816108a6919061191a565b50604082015181600201556060820151816003015560808201518160040160006101000a81548160ff021916908315150217905550905050806004600086815260200190815260200160002060006101000a81548173ffffffffffffffffffffffffffffffffffffffff021916908373ffffffffffffffffffffffffffffffffffffffff16021790555060038260405161094091906115a7565b9081526020016040518091039020600081548092919061095f90611a1b565b91905055508773ffffffffffffffffffffffffffffffffffffffff167fbab82d411dfc05bb55593f38462fe960d41858f4d2d76f6fbe297eeb94ec17cb8589886040516109ae93929190611a63565b60405180910390a25050505050505050565b60006004600083815260200190815260200160002060009054906101000a900473ffffffffffffffffffffffffffffffffffffffff1690503373ffffffffffffffffffffffffffffffffffffffff168173ffffffffffffffffffffffffffffffffffffffff1614610a66576040517f08c379a0000000000000000000000000000000000000000000000000000000008152600401610a5d90611b13565b60405180910390fd5b60008060008573ffffffffffffffffffffffffffffffffffffffff1673ffffffffffffffffffffffffffffffffffffffff168152602001908152602001600020600084815260200190815260200160002090508060040160009054906101000a900460ff16610b0a576040517f08c379a0000000000000000000000000000000000000000000000000000000008152600401610b0190611b7f565b60405180910390fd5b60008160040160006101000a81548160ff0219169083151502179055508373ffffffffffffffffffffffffffffffffffffffff167f3026993f4e06fc52b2f2f8ee2035821b9b29172ab964da353b6ba3c89133727e84604051610b6d9190611b9f565b60405180910390a250505050565b6000808585604051602001610b91929190611c48565b6040516020818303038152906040528051906020012090508273ffffffffffffffffffffffffffffffffffffffff16610bca8286610bec565b73ffffffffffffffffffffffffffffffffffffffff1614915050949350505050565b600080600080610bfc8686610c18565b925092509250610c0c8282610c74565b82935050505092915050565b60008060006041845103610c5d5760008060006020870151925060408701519150606087015160001a9050610c4f88828585610dd8565b955095509550505050610c6d565b60006002855160001b9250925092505b9250925092565b60006003811115610c8857610c87611c7f565b5b826003811115610c9b57610c9a611c7f565b5b0315610dd45760016003811115610cb557610cb4611c7f565b5b826003811115610cc857610cc7611c7f565b5b03610cff576040517ff645eedf00000000000000000000000000000000000000000000000000000000815260040160405180910390fd5b60026003811115610d1357610d12611c7f565b5b826003811115610d2657610d25611c7f565b5b03610d6b578060001c6040517ffce698f7000000000000000000000000000000000000000000000000000000008152600401610d629190611088565b60405180910390fd5b600380811115610d7e57610d7d611c7f565b5b826003811115610d9157610d90611c7f565b5b03610dd357806040517fd78bce0c000000000000000000000000000000000000000000000000000000008152600401610dca9190611b9f565b60405180910390fd5b5b5050565b60008060007f7fffffffffffffffffffffffffffffff5d576e7357a4501ddfe92f46681b20a08460001c1115610e18576000600385925092509250610ec2565b600060018888888860405160008152602001604052604051610e3d9493929190611cca565b6020604051602081039080840390855afa158015610e5f573d6000803e3d6000fd5b505050602060405103519050600073ffffffffffffffffffffffffffffffffffffffff168173ffffffffffffffffffffffffffffffffffffffff1603610eb357600060016000801b93509350935050610ec2565b8060008060001b935093509350505b9450945094915050565b6000604051905090565b600080fd5b600080fd5b600080fd5b600080fd5b6000601f19601f8301169050919050565b7f4e487b7100000000000000000000000000000000000000000000000000000000600052604160045260246000fd5b610f3382610eea565b810181811067ffffffffffffffff82111715610f5257610f51610efb565b5b80604052505050565b6000610f65610ecc565b9050610f718282610f2a565b919050565b600067ffffffffffffffff821115610f9157610f90610efb565b5b610f9a82610eea565b9050602081019050919050565b82818337600083830152505050565b6000610fc9610fc484610f76565b610f5b565b905082815260208101848484011115610fe557610fe4610ee5565b5b610ff0848285610fa7565b509392505050565b600082601f83011261100d5761100c610ee0565b5b813561101d848260208601610fb6565b91505092915050565b60006020828403121561103c5761103b610ed6565b5b600082013567ffffffffffffffff81111561105a57611059610edb565b5b61106684828501610ff8565b91505092915050565b6000819050919050565b6110828161106f565b82525050565b600060208201905061109d6000830184611079565b92915050565b6000819050919050565b6110b6816110a3565b81146110c157600080fd5b50565b6000813590506110d3816110ad565b92915050565b6000602082840312156110ef576110ee610ed6565b5b60006110fd848285016110c4565b91505092915050565b600073ffffffffffffffffffffffffffffffffffffffff82169050919050565b600061113182611106565b9050919050565b61114181611126565b82525050565b600060208201905061115c6000830184611138565b92915050565b60008115159050919050565b61117781611162565b82525050565b6000602082019050611192600083018461116e565b92915050565b6111a181611126565b81146111ac57600080fd5b50565b6000813590506111be81611198565b92915050565b600080604083850312156111db576111da610ed6565b5b60006111e9858286016111af565b92505060206111fa858286016110c4565b9150509250929050565b6000806040838503121561121b5761121a610ed6565b5b600083013567ffffffffffffffff81111561123957611238610edb565b5b61124585828601610ff8565b9250506020611256858286016111af565b9150509250929050565b611269816110a3565b82525050565b600081519050919050565b600082825260208201905092915050565b60005b838110156112a957808201518184015260208101905061128e565b60008484015250505050565b60006112c08261126f565b6112ca818561127a565b93506112da81856020860161128b565b6112e381610eea565b840191505092915050565b600060a0820190506113036000830188611260565b818103602083015261131581876112b5565b90506113246040830186611079565b6113316060830185611079565b61133e608083018461116e565b9695505050505050565b6113518161106f565b811461135c57600080fd5b50565b60008135905061136e81611348565b92915050565b600067ffffffffffffffff82111561138f5761138e610efb565b5b61139882610eea565b9050602081019050919050565b60006113b86113b384611374565b610f5b565b9050828152602081018484840111156113d4576113d3610ee5565b5b6113df848285610fa7565b509392505050565b600082601f8301126113fc576113fb610ee0565b5b813561140c8482602086016113a5565b91505092915050565b600080600080600080600060e0888a03121561143457611433610ed6565b5b60006114428a828b016111af565b975050602088013567ffffffffffffffff81111561146357611462610edb565b5b61146f8a828b01610ff8565b96505060406114808a828b0161135f565b95505060606114918a828b0161135f565b94505060806114a28a828b016110c4565b93505060a088013567ffffffffffffffff8111156114c3576114c2610edb565b5b6114cf8a828b016113e7565b92505060c088013567ffffffffffffffff8111156114f0576114ef610edb565b5b6114fc8a828b01610ff8565b91505092959891949750929550565b7f4e487b7100000000000000000000000000000000000000000000000000000000600052602260045260246000fd5b6000600282049050600182168061155257607f821691505b6020821081036115655761156461150b565b5b50919050565b600081905092915050565b60006115818261126f565b61158b818561156b565b935061159b81856020860161128b565b80840191505092915050565b60006115b38284611576565b915081905092915050565b7f44494420616c7265616479207265676973746572656400000000000000000000600082015250565b60006115f460168361127a565b91506115ff826115be565b602082019050919050565b60006020820190508181036000830152611623816115e7565b9050919050565b7f49737375657220444944206e6f74207265676973746572656400000000000000600082015250565b600061166060198361127a565b915061166b8261162a565b602082019050919050565b6000602082019050818103600083015261168f81611653565b9050919050565b7f496e76616c6964207369676e6174757265000000000000000000000000000000600082015250565b60006116cc60118361127a565b91506116d782611696565b602082019050919050565b600060208201905081810360008301526116fb816116bf565b9050919050565b7f43726564656e7469616c20616c72656164792069737375656400000000000000600082015250565b600061173860198361127a565b915061174382611702565b602082019050919050565b600060208201905081810360008301526117678161172b565b9050919050565b60008190508160005260206000209050919050565b60006020601f8301049050919050565b600082821b905092915050565b6000600883026117d07fffffffffffffffffffffffffffffffffffffffffffffffffffffffffffffffff82611793565b6117da8683611793565b95508019841693508086168417925050509392505050565b6000819050919050565b600061181761181261180d8461106f565b6117f2565b61106f565b9050919050565b6000819050919050565b611831836117fc565b61184561183d8261181e565b8484546117a0565b825550505050565b600090565b61185a61184d565b611865818484611828565b505050565b5b818110156118895761187e600082611852565b60018101905061186b565b5050565b601f8211156118ce5761189f8161176e565b6118a884611783565b810160208510156118b7578190505b6118cb6118c385611783565b83018261186a565b50505b505050565b600082821c905092915050565b60006118f1600019846008026118d3565b1980831691505092915050565b600061190a83836118e0565b9150826002028217905092915050565b6119238261126f565b67ffffffffffffffff81111561193c5761193b610efb565b5b611946825461153a565b61195182828561188d565b600060209050601f8311600181146119845760008415611972578287015190505b61197c85826118fe565b8655506119e4565b601f1984166119928661176e565b60005b828110156119ba57848901518255600182019150602085019450602081019050611995565b868310156119d757848901516119d3601f8916826118e0565b8355505b6001600288020188555050505b505050505050565b7f4e487b7100000000000000000000000000000000000000000000000000000000600052601160045260246000fd5b6000611a268261106f565b91507fffffffffffffffffffffffffffffffffffffffffffffffffffffffffffffffff8203611a5857611a576119ec565b5b600182019050919050565b6000606082019050611a786000830186611260565b8181036020830152611a8a81856112b5565b9050611a996040830184611079565b949350505050565b7f4f6e6c7920746865206973737565722063616e207265766f6b6520746865206360008201527f726564656e7469616c0000000000000000000000000000000000000000000000602082015250565b6000611afd60298361127a565b9150611b0882611aa1565b604082019050919050565b60006020820190508181036000830152611b2c81611af0565b9050919050565b7f43726564656e7469616c20616c7265616479207265766f6b6564000000000000600082015250565b6000611b69601a8361127a565b9150611b7482611b33565b602082019050919050565b60006020820190508181036000830152611b9881611b5c565b9050919050565b6000602082019050611bb46000830184611260565b92915050565b7f19457468657265756d205369676e6564204d6573736167653a0a333200000000600082015250565b6000611bf0601c8361156b565b9150611bfb82611bba565b601c82019050919050565b6000819050919050565b611c21611c1c826110a3565b611c06565b82525050565b6000819050919050565b611c42611c3d8261106f565b611c27565b82525050565b6000611c5382611be3565b9150611c5f8285611c10565b602082019150611c6f8284611c31565b6020820191508190509392505050565b7f4e487b7100000000000000000000000000000000000000000000000000000000600052602160045260246000fd5b600060ff82169050919050565b611cc481611cae565b82525050565b6000608082019050611cdf6000830187611260565b611cec6020830186611cbb565b611cf96040830185611260565b611d066060830184611260565b9594505050505056fea2646970667358221220cc71fcb0569f23cecf129a6a65da4a7f20eb5d2dac1c44b74e6c19823d19abc164736f6c63430008140033",
  "linkReferences": {},
  "deployedLinkReferences": {}
}